:100000000C9434000C9446000C9446000C9446006A
:100010000C9446000C9446000C9446000C94460048
:100020000C9446000C9446000C9446000C94AC00D2
:100030000C9446000C9446000C9446000C94460028
:100040000C9446000C9446000C9446000C94460018
:100050000C9446000C9446000C9446000C94460008
:100060000C9446000C94460011241FBECFEFD8E03C
:10007000DEBFCDBF21E0A0E0B1E001C01D92A53000
:10008000B207E1F70E94CC000C94D2000C9400005F
:100090009B01883008F44DC08E3008F049C088506C
:1000A00045E250E0E4E2F0E05093040140930301A4
:1000B000F0930201E093010180930001908141E0FF
:1000C00050E001C0440F8A95EAF7892F842B808382
:1000D000109280001092810010928500109284008E
:1000E0002431310571F02436310541F1243F81E09E
:1000F000380741F1283E83E0380741F1203D374081
:1001000049F184E021EE34E03093890020938800A7
:100110009091810098609093810090918100892B4B
:100120008093810080916F00826080936F0078944B
:1001300008954BE250E0EAE2F0E0B6CF84E029E631
:1001400038E1E2CF84E021E13AE7DECF84E023E248
:1001500034EFDACF85E0F7CF2F932FB72F933F936C
:100160008F939F93EF93FF93E0910301F09104012C
:1001700080819091000121E030E001C0220F9A952A
:10018000EAF782278083FF91EF919F918F913F91B2
:100190002F912FBF2F91189564EF71E081E00E949D
:0801A0004800FFCFF894FFCFE7
:00000001FF
